:100000000C9434000C9449000C9449000C94490061
:100010000C9449000C9449000C9449000C9449003C
:100020000C9449000C9449000C9449000C9449002C
:100030000C9449000C9449000C9449000C9449001C
:100040000C9449000C9449000C9449000C9449000C
:100050000C9449000C9449000C9449000C944900FC
:100060000C9449000C94490011241FBECFEFD8E036
:10007000DEBFCDBF11E0A0E0B1E0E2E2F6E002C0F9
:1000800005900D92A837B107D9F70E94CB010C94C7
:100090000F030C9400003D9A45980895459A2FEF60
:1000A00080E792E0215080409040E1F700C00000DE
:1000B00045980895459A2FEF8DE399E421508040AB
:1000C0009040E1F700C0000045980895F999FECFEF
:1000D00060BD92BD81BDFA9AF99AF999FECF089553
:1000E00092BD81BDF89A80B508958AB18F608AB9B2
:1000F0008BB18FEF8BB908955898599A5A9A5B9A99
:100100004C9903C08091000108954D9903C08091DE
:10011000010108954E9903C08091020108954F99FD
:1001200003C08091030108958FE39FE10197F1F7E8
:1001300000C00000589A59985A9A5B9A4C9903C08B
:100140008091040108954D9903C08091050108959F
:100150004E9903C08091060108954F9903C0809184
:10016000070108958FE39FE10197F1F700C00000B8
:10017000589A599A5A985B9A4C9903C080910801F1
:1001800008954D9903C08091090108954E9903C0C7
:1001900080910A0108954F9903C080910B01089541
:1001A0008FE39FE10197F1F700C00000589A599A38
:1001B0005A9A5B984C9903C080910C0108954D990F
:1001C00003C080910D0108954E9903C080910E01E6
:1001D00008954F9903C080910F0108958FE39FE127
:1001E0000197F1F700C0000080E00895289884FF8F
:1001F00002C02A9A01C02A9885FF02C02B9A01C02A
:100200002B9886FF02C02C9A01C02C98882314F4E6
:100210002D9A01C02D98299AEFECF7E03197F1F76C
:1002200000C000002998EFEDFEE23197F1F700C021
:10023000000080FF02C02A9A01C02A9881FF02C0F4
:100240002B9A01C02B9882FF02C02C9A01C02C98D7
:1002500083FF02C02D9A01C02D98299A8FEC97E058
:100260000197F1F700C000002998089584B18F63C9
:1002700084B92FEF81EE94E0215080409040E1F767
:1002800000C00000299883E30E94F60082E30E94E8
:10029000F60088E20E94F60086E00E94F6008CE0FC
:1002A0000E94F60081E00E94F6008FED9EE2019729
:1002B000F1F700C000000895EFECF7E03197F1F797
:1002C00000C00000289A84FF02C02A9A01C02A9820
:1002D00085FF02C02B9A01C02B9886FF02C02C9A82
:1002E00001C02C98882314F42D9A01C02D98299AC6
:1002F000EFECF7E03197F1F700C000002998EFEC40
:10030000F7E03197F1F700C0000080FF02C02A9AA1
:1003100001C02A9881FF02C02B9A01C02B9882FF4E
:1003200002C02C9A01C02C9883FF02C02D9A01C0F4
:100330002D98299A8FEC97E00197F1F700C0000003
:10034000299808950F931F93CF93DF93FC01808129
:1003500081110AC011C00E945C010C171D0761F0D9
:1003600089918111F8CF08C08F010E945C01E801DA
:100370002196005E1F4FF4CFDF91CF911F910F9117
:1003800008958FED9EE20197F1F700C0000081E033
:100390000E94F6000895CF93DF9300D000D0CDB730
:1003A000DEB70E94360180E80E94F6008FE00E94CE
:1003B000F6008AE090E00E947000082F8BE090E049
:1003C0000E947000182F8CE090E00E947000F82EC0
:1003D0008DE090E00E9470000F3FD1F41123C1F036
:1003E000FF20B1F08823A1F060E38AE090E00E9452
:1003F000660060E38BE090E00E94660060E38CE0C2
:1004000090E00E94660060E38DE090E00E9466004C
:100410000E9475000E944B000E944E0080E3898379
:100420008A838B838C8380E80E94F60080E191E0D0
:100430000E94A20180EC0E94F60000E0E12CFF2463
:10044000F394D12CCC24C3940E947C00182F8823D1
:10045000D9F30E944E001A3211F50E94C10180E8C2
:100460000E94F60083E291E00E94A2012FEF81EE4C
:1004700094E0215080409040E1F700C000000E94CD
:10048000C10180E80E94F60080E191E00E94A20193
:1004900080EC0E94F6000D2DED2CFC2CD5CFFF201A
:1004A00009F456C01F3209F453C0043058F48AE2EC
:1004B0000E945C01E1E0F0E0EC0FFD1FE00FF11D98
:1004C00010830F5F043009F0BFCF8AE090E00E94F4
:1004D0007000882E8BE090E00E947000982E8CE0D7
:1004E00090E00E9470008DE090E00E947000898191
:1004F0009A818815990561F40E94C10180E80E94E3
:10050000F60081E391E00E94A201ED2CFD2C9CCF2E
:100510000E94C10180E80E94F6008FE391E00E94F2
:10052000A2012FEF8EE595E0215080409040E1F749
:1005300000C000000E94C10180E80E94F60080E136
:1005400091E00E94A20180EC0E94F6000D2D7CCF6C
:10055000EE20A1F01F32B1F0043008F075CF7724FF
:100560007394700EE1E0F0E0EC0FFD1FE00FF11D61
:100570001083812F0E945C01072D66CF1F3209F086
:1005800063CF3DC069818AE090E00E9466006A8185
:100590008BE090E00E9466006B818CE090E00E940E
:1005A00066006C818DE090E00E94660080E80E9409
:1005B000F60089E491E00E94A20180EC0E94F6001E
:1005C0008AE591E00E94A2010E945A002FEF81EE7D
:1005D00094E0215080409040E1F700C000000E946C
:1005E000C10180E80E94F60080E191E00E94A20132
:1005F00080EC0E94F6000D2DED2CFC2C25CF80E820
:100600000E94F60087E691E00E94A20180EC0E9421
:10061000F6000E945A000D2DEC2CFD2C15CFF894FD
:02062000FFCF0A
:100622003738392F3435362A3132332D43303D2B8A
:10063200656E746572207468652070617373776F7C
:100642007264006C6F636B657220636C6F736564B8
:10065200006C6F636B6572206F70656E6564005429
:10066200727920616761696E0070617373776F726E
:1006720064206368616E67656400737563636573A4
:100682007366756C6C79006368616E676520706172
:080692007373776F72640000BE
:00000001FF
